:020000041000EA
:1000000000B5324B212058609868022188439860DF
:10001000D860186158612E4B002199600221596106
:100020000121F02299502B49196001219960352056
:1000300000F044F80222904214D00621196600F024
:1000400034F8196E01211966002018661A6600F04E
:100050002CF8196E196E196E052000F02FF8012189
:100060000842F9D1002199601B49196000215960AB
:100070001A491B48016001219960EB211966A021F2
:10008000196600F012F800219960164914480160C1
:100090000121996001BC002800D000471248134993
:1000A000086003C880F30888084703B5996A0420EC
:1000B0000142FBD001200142F8D103BD02B5186610
:1000C0001866FFF7F2FF186E186E02BD00000240BE
:1000D000000000180000070000035F00212200005C
:1000E000F4000018222000A00001001008ED00E03C
:1000F00000000000000000000000000074B24E7A12
:1001000000200420F7010010C3010010C5010010F9
:10011000C1010010C1010010C1010010C101001097
:10012000C1010010C1010010C1010010C701001081
:10013000C1010010C1010010C9010010CB01001065
:10014000CD010010CD010010CD010010CD01001037
:10015000CD010010CD010010CD010010CD01001027
:10016000CD010010CD010010CD010010CD01001017
:10017000CD010010CD010010CD010010CD01001007
:10018000CD010010CD010010CD010010CD010010F7
:10019000CD010010CD010010CD010010CD010010E7
:1001A000CD010010CD010010CD010010CD010010D7
:1001B000CD010010CD010010CD010010CD010010C7
:1001C00000BE00BE00BE00BE00BE00BEEFF3058054
:1001D000103800BEF2EB887130F0031054F00310B9
:1001E0003402001090A31AE700201F49086006C8D7
:1001F00081F3088810471D48006800282FD10DA4FE
:100200000ECC002902D000F012F8F9E71849194A7B
:10021000002000E001C19142FCD1174988471749ED
:1002200088471749884700BEFDE701C901C29A42C5
:10023000FBD3704754F00310C000002010090020C9
:10024000A4F803100000042000000420A4F8031008
:10025000001004200010042000000000704709482E
:1002600003F066F80047000008ED00E0000000D051
:1002700010090020B0270020F51B001055030010C6
:10028000E91C00105756000006005250ABB36053F3
:10029000E875001006005250861C0302F875001025
:1002A000060052505422A29D0076001005005250C4
:1002B000DE65F468A4F80310F8B5C0460448054BA1
:1002C00010B5834203D0044B002B00D0984710BDDB
:1002D000100900201009002000000000064807490E
:1002E000091A8B10C90FC91810B5491003D0044B57
:1002F000002B00D0984710BD1009002010090020E5
:100300000000000010B5074C2378002B09D1FFF73F
:10031000D5FF054B002B02D0044800E000BF0123AD
:10032000237010BD100C0020000000007872001037
:10033000054B10B5002B03D00449054800E000BF71
:10034000FFF7CCFF10BDC04600000000140C0020D9
:1003500078720010F0B5DE4657464E464546E0B589
:100360004F4885B005F068FC4E4805F065FC4E48E6
:1003700005F062FC012004F0CDFD04F0D5FA4B48F5
:1003800004F008F805F0D0F900280AD1484804F034
:1003900001F8002005B0F0BCBB46B246A946A04615
:1003A000F0BD04F08DFC002803D1424803F0F2FFB9
:1003B000EFE7414E414F3100380005F0E5FF0028DE
:1003C00008D0002006F084F8002807D13C4803F04C
:1003D000E1FFDEE73B4803F0DDFFDAE73A4804F0EF
:1003E00099FD002101A804F0EBFA002102A804F015
:1003F000E7FA364B00249B46354B364D9A46364B32
:100400009946364B984606F051F8002837DD3449B6
:1004100001A804F0D5FA002837D105F0C5F9002865
:1004200005D1304902A804F0CBFA002809D005F024
:10043000B7FC3100380005F011FF002102A804F0DC
:10044000BFFA06F033F8002801DD06F061FC2B68E6
:10045000012BD8D1584604F03FF8504606F052FB25
:10046000484604F039F8404606F04CFB0A2003F0F9
:1004700045FF02232B6006F019F80028C7DC194954
:1004800001A804F09DFA0028C7D001235C40E4B223
:10049000200004F0A9FB002103A804F091FABCE7B6
:1004A000B561001075680010F16F001078720010CF
:1004B0008C720010A8720010C8720010D472001064
:1004C000FC720010DC720010812001001873001013
:1004D000C41A0020200D002034730010E81A0020F8
:1004E00040420F00A0860100094A83009446402242
:1004F000634410B51C68C0006240C02414408022D0
:10050000520113431C60034B9C466044416010BD84
:1005100004C00140004001400A4B80009C46042377
:100520006044002901D00C230821002A00D10B00CF
:10053000026853400C221A4080235B01184302607A
:100540007047C04604C00140084B80009C46604490
:10055000002905D080239B011843022303607047C4
:10056000C0239B01184302230360F8E704C0014045
:100570000123D0228340120693629361094A8300CB
:100580009446402263441968C0004A40C02111408B
:100590008022520113431960034B9C46052360449B
:1005A0004360704704C0014000400140024B18689E
:1005B0008007C00F7047C04600C00640EFF31080B0
:1005C00072B6034A1368002BFCD0BFF35F8F7047ED
:1005D0002C0100D0BFF35F8F0022024B1A6080F322
:1005E000108870472C0100D070B5EFF3108C72B6F4
:1005F0000D4D2B68002BFCD0BFF35F8F0724CB0879
:10060000C618C05C01230C40A3401C0004400342F8
:1006100007D103433370BFF35F8F2C608CF31088D6
:1006200070BD100001F064FB2C0100D0F8B5474606
:10063000CE46884680B5EFF3108C72B6214D2C68FB
:10064000002CFCD0BFF35F8F9A422CD8D408072728
:10065000055D061901241740BC402C421FD007211C
:100660000127894609E0D408055D06194C46390082
:100670001440A1400C00294211D001329342F2D221
:1006800001204042BFF35F8F00220E4B1A608CF3B3
:10069000108800280FDBC0BCB946B046F8BD2C431B
:1006A00010003470EEE7BFF35F8F00232B608CF3F4
:1006B0001088012040424346002BECD0089801F0FE
:1006C00017FBC0462C0100D00021044B044ABFF3A5
:1006D0005F8F02C39342FAD17047C046000100D039
:1006E000800100D0044A1078431CDBB2172B00D9DC
:1006F000102313707047C0469801002001238340E7
:10070000002904D0034A1360034A13607047034A68
:100710001360FBE780E200E000E100E080E100E040
:10072000024B10309B688000C058704700ED00E01D
:1007300070B50D00EFF3108672B60F4A1368002BE8
:10074000FCD0BFF35F8F0D4B10309B6884001B59AA
:100750000B4A934203D09D4201D001F0E1FA074BCE
:100760009B681D51BFF35F8FBFF35F8F0022024B69
:100770001A6086F3108870BD240100D000ED00E0FF
:10078000CD010010F0B5DE4657464E464546E0B571
:100790000C0083B0EFF3108972B6584A1368002B2F
:1007A000FCD0BFF35F8F564B9A68030010339F0055
:1007B000D559544A9046954232D0A54243D0524E24
:1007C000AA1B2F2A2CD801228240924651464F4A1A
:1007D00012681140019151464D4A1160BFF35F8F7D
:1007E000EFF305829346002A33D101232A009A436E
:1007F00093689C4208D177E04B005B189B00F3188C
:100800009968A1422AD01A00062151560029F3DA2C
:10081000019B002B19D052463E4B1A603B4B1A608D
:10082000374B9B68DD51BFF35F8FBFF35F8F0022B3
:10083000324B1A6089F3108803B0F0BCBB46B24655
:10084000A946A046F0BD1500EAE75246304B1A60B3
:10085000E6E79342C9D001F063FAC6E7062159568C
:10086000002921DB4A005018800034188046A06817
:100870009860E079D871062020569871002824DB12
:10088000A488F01A6405241544440019E0240005E6
:10089000400D24022043988052181F4B9200B61836
:1008A0001A781970B271B3E7594600290FD1FF3198
:1008B00091711A49918018490A789A71184A9B1BBC
:1008C0005B415A43120D0A70A2E71648E3E7164A45
:1008D0001649D21A083A5002400D01439980144932
:1008E00052080A43DA8093E7062151561300002983
:1008F000B8DA5A46002AEAD14546DCE7240100D09E
:1009000000ED00E0CD0100109C01002000E100E0BE
:1009100080E100E080E200E0AD27002001BDFFFFA4
:10092000AAAA000001BD0000D601002000F0FFFFD0
:1009300000F8FFFF70B5EFF3058101240443EFF3E6
:10094000108C72B6214A1368002BFCD0BFF35F8F66
:100950001F4B05001F4AED1A6D416A43120D1E4DD3
:100960008900AE6852B27658A6421CD0062159566C
:1009700091421CD012215956914222D01E21595623
:10098000914220D02A2159560324914210D0134B72
:1009900019781A708171BFF35F8F00220B4B1A60B8
:1009A0008CF3108870BDAB680D4C5C50EFE70024F1
:1009B0006100091989005B18FF2199710949998023
:1009C000E5E70124F4E70224F2E7C046240100D061
:1009D0009C010020AAAA000000ED00E0AD27002045
:1009E000CD01001001BDFFFF054B064A1360064A0A
:1009F000136053609360D3601361536193617047D8
:100A00008080808000E400E004E400E0024B9C462B
:100A100061448900016070474000003410B5040053
:100A2000FFF760FE01002000FFF7F0FFFF232371B6
:100A3000BFF35F8F10BDC04610B50400FFF752FE34
:100A400001002000FFF7E2FFFF23A380BFF35F8FC9
:100A500010BDC04683680B4810B5844661446244AB
:100A6000090112019A18591854684B6801209C42D8
:100A700001D802D00020C0B210BD12680B689A42A3
:100A8000F9D8F7E7FFFFFF0F0A4B1968EFF3108063
:100A900072B60A68002AFCD0BFF35F8F1B68BFF3F1
:100AA0005F8F00221A6080F3108840BF0020002171
:100AB0007047C04630210020F8B557464E4645469F
:100AC000DE46E0B599460CAB1C780DAB1B780600F2
:100AD00090469A460768002C11D1BC7B002C42D06E
:100AE00065003B682D19033D59194B78BB73002BEA
:100AF00000D1FB7300238B704B700B7004E065001A
:100B00003B682D19033D5919B2682A4B9446424659
:100B1000E3181B0163441A604A465A600A9A9A60B5
:100B20000B9ADA6000238B704B700B707B7B9B46BB
:100B3000002B2BD022005946B8687B6898473A684A
:100B4000002816D05B4658465B005B445519033BB2
:100B5000A870D118D35C002B00D06B705B460C7072
:100B60007B73A34513D0F0BCBB46B246A946A04652
:100B7000F8BD5B465B005B44033BD3189C70511986
:100B8000525D002A00D05A705B460B707C7342465F
:100B90004B46307D00F02EFB051E06D05346002B41
:100BA00003D12100306800F049FD0E9B002BDAD004
:100BB0001D70D8E7FFFFFF0FF0B5DE4657464E46E3
:100BC00045460023E0B58BB00893674B8200D458AC
:100BD00000239B46099000F093FA626806000F001C
:100BE000EFF3108572B61368002BFCD0BFF35F8F54
:100BF00023689C465B7B9946002B00D169E0A26884
:100C00005A4B90464B441B01984443461A685B6814
:100C100010001900801BB941002900DC63E009982D
:100C200000F0E8FA0023002298460023069207937A
:100C300000239A466368BFF35F8F5A461A6085F3B4
:100C400010885346002B08D10028C4D10BB0F0BC4B
:100C5000BB46B246A946A046F0BD089B41461802D5
:100C60004B461843D047626806000F00EFF310852B
:100C700072B61368002BFCD0BFF35F8F002F50DBE0
:100C800033003B4302D02369002B61D12368D97B19
:100C9000002907D04A00521819688C464946624418
:100CA000033A51709A7B002A01D14A469A734A4608
:100CB000DA734B46E168013BCA5C0132CA545B46B9
:100CC00023616368BFF35F8F5A461A6085F310880B
:100CD00081E7002300229846002306920793002311
:100CE00000209A46A6E7002902D1002800D096E706
:100CF0000021604600F020FC43461A685B680692BB
:100D0000079343469B689A464346DB689846E368E8
:100D10004B44013B1B7808931B02034323610020D3
:100D200088E72369002BB1D0069A079B921BBB4131
:100D3000002B15DB5946049101210391494602918C
:100D400041460191514620000091FFF7B5FEB6E7FC
:100D500000F0D6F932003B0012184B41002BE9DAC3
:100D60000122034B5242E5E7D81A0020FFFFFF0F94
:100D7000FFFFFF7F10B5144C6368002B04D00A21DD
:100D80001248FFF743FE10BD2300114A10212068CE
:100D900000F0ECFA032000F0A7F9032000F094FA29
:100DA00003200C4900F0E0F9FFF79CFC0A4B9C463D
:100DB00003232375D0231B061B6860446375074B10
:100DC00080006060DC60DAE7E40100203021002070
:100DD000550A0010B90B001040000034D81A00204A
:100DE000F0B54E464546DE465746E0B585B0019320
:100DF00010AB1B7806000393002399469846009297
:100E00007268EFF3108B72B61368002BFCD0BFF33F
:100E10005F8F3568AC7B002C3DD067002B683F1995
:100E2000033FDB195A78AA73002A00D1EA73B1682C
:100E3000474A8C4600980199A2181201624410603A
:100E400051600E9991600F99D16042469A705A7024
:100E50001A706B7B9A46002B67D022001900A86895
:100E60006B6898472A68002852D0534650465B006A
:100E70005344D719033BB870D118D35C002B00D072
:100E80007B7053460C706B7354454FD0F3681B193D
:100E9000013B187800E000207368BFF35F8F424683
:100EA0001A608BF31088002C4FD04B46002B08D1D2
:100EB0000002204305B0F0BCBB46B246A946A0469E
:100EC000F0BD039B002B3ED00E9B00200F9998474E
:100ED000030004000D000B4335D000290ADA009A04
:100EE000019B121BAB4100920193002B0ADB039B79
:100EF000994685E700F004F924184D4100940195C6
:100F0000002DF4DA0123134C5B4200930194EEE7C9
:100F100053465B005344033BD3189C70D119D25DF8
:100F2000002A00D05A7053460B706C73307D009AC3
:100F3000019B00F05FF981460028A7D021003068AE
:100F400000F07CFBA2E70020B4E701204042B1E7BB
:100F5000FFFFFF0FFFFFFF7FF0B5EFF30583CE46E6
:100F6000474680B505000C0085B0002B12D02C4AF6
:100F70000020536A9C4203D8926A0130AA4204D3EB
:100F800005B0C0BCB946B046F0BDE01A421E904163
:100F9000C0B2F5E7234E02930193234B0200009366
:100FA00030000B00FFF71CFF031EE0DD20BF71685F
:100FB000EFF3108772B60A68002AFCD0BFF35F8F88
:100FC000DAB294463068427B62451DD0FF221A4057
:100FD0005100894601689144884649464144033995
:100FE0008978002913D0F1681B0A88464244013AE7
:100FF0001278DBB29A420FD07368BFF35F8F002282
:101000001A6087F31088B2E7FF221A40EBE73269D3
:101010009342F1D13161EFE7614600F00FFBEBE75E
:1010200000400540E4010020890A0010F0B5EFF30C
:101030000582D6464F4646461000C0B51038EFF33D
:10104000108872B6214C2368002BFCD0BFF35F8F51
:101050000123190081401E4D1F006963AA461D4DE2
:1010600029601D4D2E78AC463500C5402F402B42DF
:1010700009D1BFF35F8F276088F31088E0BCBA46C0
:10108000B146A846F0BD5346144D5F6A83005D59D2
:10109000AF420ED3124A8E439B5862461670BFF37E
:1010A0005F8F0022226088F31088002BE6D09847DB
:1010B000E4E70C4B92009C46624413681360BFF354
:1010C0005F8F0023236088F31088D7E7280100D0C2
:1010D000004005403C700540AE270020382100202C
:1010E000340C0020D03F054010B50100024A0348EF
:1010F000FFF77AFA10BDC04640730010AA270020FF
:10110000034B596A0A00986A596A8A42FAD17047B1
:101110000040054070B504000D00124A536A1900E2
:10112000966A536A8B42FAD13000190024184D4157
:10113000AB4211D80ED02B000A494A6A9A42FCD31E
:1011400007D1084A02E0516A994202D1916AA1424C
:10115000F9D370BDA642EED9012301246442E517FC
:101160005B42E9E70040054070B504000D00EFF375
:10117000108672B61A4A1368002BFCD0BFF35F8F3B
:10118000002D1BD02000FFF7CBFA164981420AD070
:101190002000FFF7CDFA01212000FFF7AFFA01236D
:1011A000A340114A1360114BA400E550BFF35F8FB9
:1011B00000220B4B1A6086F3108870BD0B4BA20007
:1011C000D5500122A2400A4920000B7893430B70AE
:1011D0000449FFF7D7FA00212000FFF78FFAE5E76F
:1011E000280100D02D10001038600540340C00207C
:1011F000AE270020F0B54F46D6464646C0B507009C
:101200002C4C616A0D00A66A616AA942FAD18B4230
:1012100008D805D00120E0BCBA46B146A846F0BDCA
:10122000B242F7D9EFF3108A72B623480168002959
:10123000FCD0BFF35F8F0125BD4020491D4C88467F
:10124000097889462943C9B28C46414660460870F0
:10125000391D1B48890065630A51B9000B50216A8A
:101260000020294219D0616A0800A66A616A814299
:10127000FAD18B4219D801D1B24216D8CC4516D03A
:101280000C4B1F201D625D6301230740BB400D4ACC
:101290001E38136043464A461A70BFF35F8F002220
:1012A000054B1A608AF31088B5E70020F5E70120A6
:1012B000F3E7C04600400540280100D0AE270020DB
:1012C0003821002080E200E0EFF3108C72B60A496A
:1012D0000B68002BFCD0BFF35F8F01238340074ACC
:1012E0000748136202789A430270BFF35F8F0023AE
:1012F0000B608CF310887047280100D00040054037
:10130000AE27002070B5050014001600002915D086
:101310000C00002A12D080686B6898472968002862
:101320000ED073009B196200033B1219CB18033ACD
:101330009C7088188A5C002A15D10670200070BD48
:1013400063001B197200033B9219CB18033A9E707D
:1013500088188A5C002A02D104703400EEE75A70C3
:1013600004703400EAE75A700670E7E730B583602E
:101370000023CCB243730133047342608373C4739C
:101380000D000068012C06D9421C0133DBB213703A
:1013900003329C42F9D1FF2129404B005918002308
:1013A00040180338437030BDF8B5CE4647460600B6
:1013B0000C0080B5002907D04D0003686D18033D6F
:1013C0005A195778002F04D12000C0BCB946B04646
:1013D000F8BD7900C91903398846434459788946CC
:1013E00000215970517073683A0021008068984755
:1013F0003368002814D042469A18947059195B5DDE
:10140000002B00D053700F70270049463000FFF7C3
:10141000CBFF390002003000FFF774FF0400D3E770
:10142000424641465D19AF709A185B5C002B00D0B4
:101430006B701470E9E7C046F0B557464546DE4686
:101440004E46E0B50D006B0001685B19DF1E04001D
:10145000C85D83B00192CA19002850D043001B1800
:10146000033BCB185E78B446002E1AD1019E002EA5
:1014700042D0E67B002E04D073009B19CB18033BAF
:101480005D70A37B002B00D1A573E57300282FD1DD
:101490000023537003B0F0BCBB46B246A946A04639
:1014A000F0BD72006244033A89184A7890460022DF
:1014B0004A7091465A70010032002000FFF722FF67
:1014C00043468246002B07D05B0021684344033B20
:1014D000CB185A78002A16D1424651462000FFF711
:1014E00011FF2168019BCA19002BC2D10028CFD05F
:1014F00043001B18033BCB1800219970C8E7019BE0
:10150000002BB6D1C4E7500080180338091848787A
:10151000834648464870587041462000FFF7F2FE67
:10152000594680462000FFF73FFF41460200200059
:10153000FFF7E8FE8046CFE7F0B557464546DE4662
:101540004E46E0B583B00191457B04006B00006816
:101550005B19DF1EC15DC219002952D04B005B1818
:10156000033BC3185E78B446002E1CD1019E002EAA
:1015700044D0E67B002E04D073009B19C318033BB4
:101580005D70A37B002B00D1A573E573002931D1D9
:10159000002328005370617303B0F0BCBB46B24611
:1015A000A946A046F0BD72006244033A8018427812
:1015B00090460022427091465A7020003200FFF798
:1015C000A1FE43468246002B07D05B0021684344BE
:1015D000033BCB185A78002A17D1424651462000C7
:1015E000FFF790FE019B01002068C219002BC0D1BB
:1015F0000029CDD04B005B18033BC3180020987026
:10160000C6E7019B002BB4D1C2E750008018033815
:10161000091848788346484648705870414620006B
:10162000FFF770FE594680462000FFF7BDFE414699
:1016300002002000FFF766FE8046CEE770B504008A
:1016400000292CD0437B8B422ED0056848004018DF
:10165000033828188278002A21D053009B18033BB6
:10166000EA5CEE188A4202D11BE0002A08D053003F
:101670009B18033BEB185A788A42F6D142785A708D
:1016800000230122837043702000FFF7D5FE617BA9
:1016900002002000FFF736FE6073012000E000200A
:1016A00070BD43783370EBE701221900FFF7C4FEE9
:1016B00060730120F4E7C046F8B5CE464746040003
:1016C00080B506200E0000F023FA051E51D0524BC3
:1016D0005249E21853425A418023DB039C4692054B
:1016E0004F4B62441A604F4B1A6010008B6898434E
:1016F000FBD1494B8021E3185A4253414A4A5B00CF
:1017000049009952062000F003FA3100C00001F0B0
:1017100069FEC30932D14022012190466162A36271
:10172000256BEB0736D427008026E36A00232C378D
:1017300076013E4333600620256300F0E9F9414617
:10174000800001F04FFE236B05009846DB073BD479
:101750006022E36A5A406E2313403360434623639A
:10176000802310229B013B431A60304B23630323E9
:10177000A3642800C0BCB946B046F8BD2C4A9342C9
:101780003FD900232B492C4A6162A362256B904606
:10179000EB07C8D52200C02330329B011343234AF4
:1017A00006201A60666AA26AB601B61800F0B0F99F
:1017B000224901F017FEB6020100300001F012FECE
:1017C0000021FFF7A7FCAEE72200C02330329B01C7
:1017D0001343164A06201A60636AA26A9B0199465F
:1017E000914400F095F94B4614499B02994601F04B
:1017F000F9FD0100484601F0F5FD0021FFF78AFCE4
:10180000A6E77F2299018846104001304008190060
:101810008044030082E7C0460080FCBF00C0004057
:1018200000E0004000F00040882700200103000095
:10183000FEFF0000FFFF0000C0FF3F004E0E000053
:1018400030B50C2083B000F0B9F9FEF7AFFE0028E8
:101850000ED0994B994A1A605A609A60DA601A6100
:101860005A619A61DA611A62954A5A6203B030BDD0
:10187000944CA06700F0AAF90122934B1A60636CA4
:10188000012BFCD10322914B1A608E4A936B012BE2
:10189000FCD1013301218E4A8E480093043300F0BD
:1018A0003DF905238C4A009301218C4800F036F95C
:1018B0008B4B5A68FF2A02D8802252005A6080223D
:1018C0007D4C824B21691201854D1A60002907D099
:1018D000606901F087FD431C5800C0180338FDD231
:1018E000E0217F4B02201A681140802252012A43D6
:1018F00011601968484003210140116004219A6871
:101900001142FCD08022802192012A4309011160FA
:10191000802252005A60734B2361734B5968FF2930
:1019200000D85A600321684A6F4B116002399A68E7
:101930001142FCD0E0201A681040802252011A4364
:101940001060186848400321014002201160664978
:101950008A681042FCD08022920113438022120137
:101960001A608022614B52004A606361604B596883
:10197000FF2900D85A6080225E4BE16912015C4D5C
:101980001A60002907D0606901F02CFD431C580043
:10199000C0180338FDD2E02255490B681A40802355
:1019A0005B012B431A60802380229B012B43120191
:1019B0001A608022414B52004A60E3614E4B5968E5
:1019C000FF2900D85A6080224C4B216A12014A4DEF
:1019D0001A60002907D0606901F004FD431C58001B
:1019E000C0180338FDD2E02243490B681A40802317
:1019F0005B012B431A60802380229B012B43120141
:101A00001A60802380225B004B602C4BD202236241
:101A10003B4B5968914200D25A608022394B616A2F
:101A20001201374D1A60002907D0606901F0DAFC15
:101A3000431C5800C0180338FDD2E02230490B681F
:101A40001A4080235B012B431A60802380229B0174
:101A50002B4312011A608023DB024B60184B636238
:101A6000294B5A68FF2A02D8802252005A608022ED
:101A7000264BA1691201244D1A60002907D0606924
:101A800001F0B0FC431C5800C0180338FDD2E0221E
:101A90001D490B681A4080235B012B431A60802389
:101AA00080229B012B4312011A6080235B004B6054
:101AB0000E4BA361DAE6C046B40C0020006CDC02D9
:101AC0001BB70000008000403CB0004030B0004038
:101AD000002F685900800240008C864700C00240F9
:101AE00030800040001BB7003C8000404059730725
:101AF0005480004054B000406080004060B000401E
:101B00006C8000406CB000404880004048B000400D
:101B1000014B8000C0587047B40C0020F8B5040099
:101B200021481D0017000E0001F05CFC0100380088
:101B300001F058FC069B29041B0319432368002B62
:101B400020DB1A4B1A4DE21853425A4180235B01A5
:101B50009C461203174B62441A60174B1A60170019
:101B6000AB689F43FBD1C022231D92011A4321235E
:101B70002660A06013602368002BFCDA0823E16074
:101B80001360F8BD3F2322681340B342D9D1A36844
:101B90001B051B0D8342D4D1EE22E368D202134011
:101BA0008B42CED1EDE7C046001BB7000040FDBF21
:101BB00000C0004000E0004000F000408023024AE6
:101BC0009B000343D362704700800540AA23064A66
:101BD0001B0113602F230549D360054B196053681F
:101BE000002BFCDA7047C0460040024000B0FA000B
:101BF000006002402C4B2D4A70B51A602C4A2D4BC8
:101C00002D491A6014008B689C43FBD12B4D2C4E40
:101C1000B54208D2013E761BB60808CD984723008E
:101C20000134B342F9D1FFF70BFE264A214B1A606B
:101C3000214A9368DB43DB01DD09002BF9D1402207
:101C4000214B224C224E9A675A671A67DA66B442D1
:101C500008D223682000002B20D00834FEF7ECFEC9
:101C6000B442F6D31B4E1C4CC022A168300002F0D7
:101C70002DFAA660FEF728FDFEF7B6FEFFF77AF80C
:101C8000164C174EB44208D2013E361BB60808CC9B
:101C900098472B0001359E42F9D170BD0834FEF7FC
:101CA000BDFEB442D5D3DDE700E00040BFCDFBFE72
:101CB000FE7F3C0000F0004000C00040FC08002017
:101CC0000C090020FFFFFF0100F00140F408002094
:101CD000FC0800200000002000ED00E00C090020BE
:101CE0001009002000BEFDE710B5FFF7FBFFC0465E
:101CF0000FB400B5084883B002F04CFB049B002BE6
:101D000007D005A91800019101F0F2FA034802F08A
:101D100041FB0120FFF7E6FF6473001074730010AD
:101D200010B50148FFF7E4FF787300109A4200D223
:101D3000885470477047C046F8B557464E464546EA
:101D4000DE46E0B599460A9B07009A460D9B8846F9
:101D5000934615000B9E9B0710D10C9B9E420DD203
:101D60009D1B14000E005D4422004B4601343100DF
:101D70002020B847A542F7D1B0460B9E002E27D0B1
:101D8000444675195346AA1B013E985D21004B46F7
:101D9000B847002EF6D123002C0098460D9B9B07D8
:101DA0000FD55B46E51A0C9BAB420AD946469846CE
:101DB00022004B46310020200135B8470134A845A8
:101DC000F6D82000F0BCBB46B246A946A046F8BDF6
:101DD0002C00E3E7F0B54F464646D646C0B584B082
:101DE00098460EAB1B78129F994694460D9C109B0B
:101DF000119EBA0725D4002E4BD19C4200D3BFE0E0
:101E000001223A4092461F2C00D9B8E00C9A551E88
:101E1000302201E0202C03D001342A55A342F9D806
:101E20005246002A0DD0A6420BD9202C44D00C9A41
:101E3000551E302201E0202C3ED001342A55B442F8
:101E4000F9D1FA064DD57A053FD4002C39D10F9B34
:101E5000102B00D179E00F9B022B00D18AE03023B8
:101E60000C9A012413704B46002B3FD02D230C9A63
:101E7000135501340C9B6246009303974346029628
:101E80000194FFF759FF04B0E0BCBA46B146A8463A
:101E9000F0BD012215003D40AA463A422FD04A46E5
:101EA000002A02D10C323A4200D0013E9C42BAD202
:101EB0001F2CABD9202E27D92024FA06DAD57A0593
:101EC00003D4A3422DD0A6422BD00F9B102B32D08F
:101ED000022B20D0202CCDD030220C9B1B191A7045
:101EE0000134202CC6D04B46002BBFD17B070DD42C
:101EF0003B07BFD520230C9A13550134BAE79C4207
:101F00009FD21F2C00D881E720249AE72B230C9A1C
:101F100013550134AEE7202CACD00C9B1B190134B7
:101F20003AE0631E012C92D00F9A102A2AD0022A7E
:101F30002FD01C00D0E7BB060ED4202C9AD00C9BCF
:101F40001A19013478231370C4E7BB060DD4782323
:101F50000C9A01241370BFE7202C00D18AE7582285
:101F60000C9B1B191A700134B4E758230C9A0124F6
:101F70001370B1E70C9A603301241370ACE720248E
:101F800000265EE7023CBA06E9D40C9A12191C003E
:101F9000D8E70C9A9246534462221A709AE7C046D8
:101FA00010B5002800D110BD02F0A8F9FBE7C0462B
:101FB0000B0010B5002802D049681B68984710BD77
:101FC000F0B5DE4657464E464546E0B59BB09B46CB
:101FD000249B89469846259B0B900C92404642468E
:101FE00019009A4601F0C7FC002800D0D8E0012271
:101FF00040465146774B524201F0B8FC002800D0D1
:10200000CEE0012240465146734B524201F098FC0B
:10201000002800D0C4E0002200234046514601F0D1
:102020008FFC002800D0B9E1424653460A9209933A
:102030008023289ADB001A400E92289A1A4201D176
:10204000062326930A9A099B1600134300D0C7E083
:10205000289B002500261B0500D49BE100230D933F
:10206000269A0D9B9A4200DC9FE1D01A431E2693CC
:102070008023289ADB001A430023002728920D931F
:10208000279B0024BB4200D9DC1B0223289A1A405C
:102090000E92289A134203D07B427B415B421C4044
:1020A0000D9B002B07D00A9809992A00330001F0F4
:1020B000E6FB0A900991002200234046514601F0B8
:1020C0003FFC002805D08020000684460999614421
:1020D0000991289A414B0B9D13400493269B0A9A21
:1020E0000293099B03940092019349465B462800A2
:1020F0000C9A00F08BF90400002F62D0289B22007C
:1021000098061F23C0179843631C984649465B46B0
:102110006530A8470D9B0025DA179C18DB0F9A46FF
:102120005440013F01E0202D13D00AAA94461F23FA
:10213000200063440A2101355E1901F053F9303162
:10214000317020000A2101F04DF926000400092E0B
:10215000E9D805230693002304930A3303935346D7
:1021600005970B9F029312AB009342465B4649468C
:1021700038000195FFF72EFE0E9B0400002B20D0A7
:102180000C9BC51A279BAB421BD91E0022005B4645
:10219000494620200135B8470134AE42F6D810E058
:1021A000289B42460493279B49460393269B0B9802
:1021B00002935346009201935B460C9A00F026F975
:1021C000040020001BB0F0BCBB46B246A946A046A6
:1021D000F0BDC046FFFFEF7FFFFFEFFFFFF7FFFF00
:1021E000734B099F9C467800400D604401F0D6FB7C
:1021F000704A714B01F061FB704A714B01F036FB84
:102200003B03704A1B0B1A4304000D003000110001
:102210006D4B002201F021FB6C4A6D4B01F04DFB30
:1022200002000B002000290001F020FB01F0CEFB92
:102230000D9001F0B3FB674A674B04000D0001F0FD
:102240003CFB0022654B01F011FB01F0BFFB644A2F
:102250000600644B2000290001F02FFB0400300031
:102260000D000F9601F09AFB5F4A604B01F025FBD1
:1022700002000B002000290001F0EFFA02000B0021
:1022800006000F0001F019FB320004000D003B00B6
:102290003000390001F0EAFA002210901191544BFD
:1022A0002000290001F0EBFA0022524B01F0DEFA87
:1022B00002000B002000290001F0E1FA00224E4B41
:1022C00001F0D4FA02000B002000290001F0D7FA37
:1022D0000D008021040032003B000020C90501F000
:1022E000BCFA02000B002000290001F0BFFA020036
:1022F0000B001098119901F0C2FA0022314B01F045
:10230000B5FA3E4B0F9C9C4664440022230501F025
:10231000D4FA05000E0002000B000A98099901F09A
:102320000FFB00280AD00D9B2800013B31000D93C4
:102330000022304B01F0A3FA05000E00C6270D99CC
:102340002B0063318F42BF4128997F420437090532
:1023500000D495E6334300D182E6099C284A210047
:10236000284B0A9801F0FAFA002808D00022210030
:10237000254B0A9801F0E4FA002800D070E6269B6D
:10238000002B00D17CE60E9B5A1E9341269AD31A4D
:10239000269375E6002304270D9371E643460A93BE
:1023A00080231B065344099342E6002326935FE6ED
:1023B00001FCFFFFFB799F501344D33FB3C8608BF0
:1023C000288AC63F0000F03F0000F83F61436F637A
:1023D000A787D23F71A379094F930A400000E03FDD
:1023E0001655B5BBB16B0240EF39FAFE422EE63FFF
:1023F00000002C400000244000001840FF030000B3
:102400002D431CEBE2361A3F80842E41F0B54E4638
:10241000DE4657464546E0B597B09946209E219F37
:10242000229B8346984607910C923B003200300075
:10243000390001F0A0FA002800D0A9E10122300003
:102440003900CA4B524201F07BFA002800D0E1E08B
:10245000012230003900C64B524201F087FA0028B1
:1024600000D0B7E0002230003900C24B01F07EFA04
:10247000002800D099E0002230003900BE4B01F066
:102480005FFA002800D090E00022002330003900DD
:1024900001F056FA002800D0B1E000230D93249BF0
:1024A0005B0501D40623984608AB9C4617220024FE
:1024B00030234146624404E0013413550139202C95
:1024C00001D00929F8D888463000390001F07EFA99
:1024D0004346DA00A94B05009B181A685B6808920E
:1024E000099301F05BFA02000B003000390001F0A3
:1024F000B4F9089A099B01F0E0F90A900B9101F0F8
:1025000089FA824601F046FA02000B000A980B99FC
:1025100001F0A3F900229A4B0A900B9101F026FAE0
:10252000002800D1C0E001239C46E244504601F05F
:1025300031FA02000B000898099901F007FA002807
:1025400002D000239A4601354346002B6AD008ABDF
:1025500017269C4608956644554614E001235B42C5
:1025600043440A2128009A4600F03CFF01343031F0
:102570003719397028000A2100F034FF092D00D8DE
:10258000D0E0D0460500202CE8D10EAB98460323BE
:10259000249A1340012B00D196E02023249A019322
:1025A0000392239A434602921EE0249B58460493CA
:1025B000239B00960197039343460C9A0293079935
:1025C0004B46FFF7FDFC17B0F0BCBB46B246A94630
:1025D000A046F0BD249B5B070ED40322694B2499CF
:1025E0000192039123990291009358464B460C9A0D
:1025F0000799FFF7A1FBE6E70422634BEFE73B00F7
:1026000032000020002101F028F9012306000F000C
:102610000D9344E7249B0393239B0293042301938C
:102620005A4BE1E7280001F0B9F902000B00300035
:10263000390001F012F9524B002206000F0001F0A0
:102640007FF90EAB984600280AD1002230003900ED
:102650004B4B01F08BF9002802D1EB0700D5013577
:10266000202C94D008AA94461723280063440A21FA
:1026700001341E1900F08EFE3031280031700A211D
:1026800000F088FE051EEBD10323249A1340012B92
:102690001BD0202C00D180E70D9B002B35D02D22A4
:1026A0004146631C0A5579E700220A980B99344B7E
:1026B00001F046F9002800D046E75346002B51D1DF
:1026C00001239C46E2443FE72024239B002BE0D0DB
:1026D0000D9B002B03D1249A0C33134202D0239B71
:1026E000013B2393239BA342D3D908AB9C461722DB
:1026F00030236244202C00D14FE723990134135535
:102700008C42C6D0202CF8D147E7249B5B0724D409
:10271000249A2300120700D440E7202241460133C7
:102720000A553BE75746089D202C00D12DE7220093
:1027300030214046002F09D00132B154202A00D167
:1027400023E7D3431B191B18002BF5D10EAB98467A
:102750002E234146541C8B5482E72B224146631C96
:102760000A551BE7DB0700D4EEE6A9E7FFFFEFFF02
:10277000FFFFEF7F65CDCD4165CDCDC180750010E8
:102780000000E03F84730010887300109473001001
:10279000249B0393239B029303230193004B23E782
:1027A00090730010F0B5DE464E4657464546E0B5FC
:1027B0009FB01C00289B91460993C94AC94B8B4680
:1027C00008901A60002900D118E2002320789A4668
:1027D000002800D11AE226001D005C460AE02A000B
:1027E0006F1C4B46089D2100A8473D0001363078FC
:1027F000002870D02528F2D110239B46083B9A462A
:10280000043B9846023B00219C46721C107816003F
:102810000300203BDBB2102B03D8B34F9B00FB58C7
:102820009F460300303B092B32D900230A932A2804
:1028300068D0002398462E283ED00300683BDBB2C8
:10284000122B1CD8A94A9B00D3589F460123013262
:102850001943DBE7634601321943D7E743460132A8
:102860001943D3E75B4601321943CFE753460132A0
:102870001943CBE780235B007078194301360300CE
:10288000253BDBB2532BAAD8994A9B00D3589F46CD
:1028900000270300B800C01901364000C018337883
:1028A00030381A00303A0700092AF3D90A90180084
:1028B000002398462E28C0D180237078DB0019436E
:1028C0000300303B721C092B00D8A1E12A2800D15B
:1028D000B2E11600B1E7A346AA462C00D14503D8C1
:1028E00001235B424B449A464B46524659460020D0
:1028F000089DA84720001FB0F0BCBB46B246A946C1
:10290000A046F0BD099B40CB0A96002E03DB507811
:102910000993561C8DE72838014370420A900993A9
:102920005078561C85E7782800D1DFE1582800D17F
:102930004CE26F2800D14FE3622801D100F030FC57
:1029400010230A009A430B92692801D000F0A9FCD9
:102950000A230C934B0500D5D0E10B9A802311007C
:102960009B0019408B461A4200D0A1E2802311003F
:102970005B0019408A461A4200D0B6E313005B069A
:1029800000D5EDE2130009991B0601D400F076FC96
:1029900008C91BB2D8171A18424092B2099193463F
:1029A000DA0F1292002B09D1802310220B99DB0041
:1029B0000B4091430B91002B00D0E4E20B9A612372
:1029C000920600D541230EA91F228C46DBB2624439
:1029D0000A3B5F461395A34655460C9CB2460D93A1
:1029E00016000AE03033DBB201357355A74200D23E
:1029F000EDE2202D00D1EAE207002100380000F0CE
:102A0000F1FCCBB20929EDD90D9A94466344DBB2AF
:102A1000EAE780239B007078194301362FE770782E
:102A2000682800D1CDE180230136194327E770786B
:102A30006C2800D1BFE180235B00194301361EE7FB
:102A4000462800D19BE10722099B04910733934359
:102A50000A9A19000392424602920CC90898009201
:102A6000019309912A004B462100FFF7CFFC013664
:102A70000500BCE62A006F1C4B46089D210025205E
:102A8000A84701363D00B2E68B0700D4ADE1099BB3
:102A90002A009A466B1C9846534601CB21009A4661
:102AA000089F4B46C0B2B8470A9B9C466544012B21
:102AB00000D886E2089B4746B04626004C46994619
:102AC0003A002300013731002020C847AF42F7D138
:102AD000A1465346340046460993013687E6C04670
:102AE000A5270010C01A00209C730010E07300108E
:102AF0002C740010099B04CB9B4643460992002B83
:102B000000D1C6E013789C46002B00D1BDE34346BC
:102B1000013B099A0133D0180A9F130001E0834258
:102B200003D05A780133002AF9D1099A0A979B1ADF
:102B30000B9380230A00DB001A400C92194204D048
:102B40000B9B434501D943460B9302231A000A40CD
:102B50000D920B4200D187E16046002800D168E168
:102B60000C9B002B00D10DE1A844C246099B57469F
:102B70005B1B9846089BB2462A0026004C469946A5
:102B800009E023003100551CC8474346585D002822
:102B900000D126E12A009742F3D1A1463D0034003E
:102BA00056460D9B002B00D043E15B46013609934E
:102BB0001DE6099B1A0008CA9246002B48D0212224
:102BC00011438B460EA884461F21614409950022BB
:102BD0000F27A4460D0002E0202A0CD00B003C0079
:102BE0001C4020003730092C00D807380132A85487
:102BF00019090F2BF0D86446099D32E0DC4B207890
:102C0000089300239A46002800D0E4E5002465E6F6
:102C1000434606000A9F9800C01801324000801900
:102C20001678030030003038303B0928F3D93000E3
:102C3000984616000A9700E6099B023604CB904698
:102C4000D2434046D2171040804609933078F4E5CD
:102C50001022080090431132104383460022490598
:102C6000B0D55B460693082305934346049310238F
:102C700003930023029316AB019200932A004B4664
:102C800021000898FFF7A6F853460500013609937E
:102C9000ADE513789C46002B00D1F7E202235B429E
:102CA00037E7202302009A43472A04D180231B01DF
:102CB000194302239843452801D1202319430722B1
:102CC000099B0491073393430A9A190003924246E1
:102CD00002920CC908980092019309912A004B4670
:102CE0002100FFF76DF90136050080E510230C93F4
:102CF0000C230A009A430B924B0503D501230B9A30
:102D00009A430B92692800D127E6642800D124E673
:102D10000B9A802311009B0019408B461A4200D069
:102D200066E1802311005B0019408A461A4200D0F8
:102D300039E213005B0600D53CE113001B0600D40A
:102D4000A6E2099B04CB1204120C934609935B463E
:102D5000002B00D09AE10B9A1033110099430B918C
:102D6000520500D492E100239A460B9B06930A9BDE
:102D70000593434604930C9B039300230CE120230B
:102D8000194360E6099B0A9A5B1B98464B4691469D
:102D90001F00B2462600089C2A003B003100A047D5
:102DA00043460135585D0028F6D14A463400B946FD
:102DB00056460A92F5E6C0239B00B07819430236C6
:102DC0005DE5C023B0781943023658E50C230A00AC
:102DD0009A4314331A43103B0B920C934B058DD43A
:102DE00096E7A14634005646DBE60A9A012A00D847
:102DF00053E26B1E9F18089BB04626004C4699462E
:102E00002A002300013531002020C847BD42F7D1F8
:102E1000A14634004646099B3A0001CB2100984662
:102E20007D1C4B46089FC0B2B84743460136099304
:102E3000DDE40B9B0A9AA8469A4200D8B5E6944670
:102E40006544ED1A089B4746B04626004C46994615
:102E50003A002300013731002020C847AF42F7D1A4
:102E6000A14634004646A0E60B9A0A99531C9142AB
:102E700000D814E24B199B1A1F00089BB24626008B
:102E80004C4699462A002300013531002020C847CE
:102E9000BD42F7D10A9BA14601330B93099B340035
:102EA0001B7856469C466046002800D058E67CE6D3
:102EB0000722099B07339343013294469C446246A0
:102EC0005F6809921A68FB17109311931098119973
:102ED000030053400E930B007B400F9394460E9AD1
:102EE0000F9B121A8B410E920F93FB0F62461293A7
:102EF00000233A439B463DD00B9A6123920600D5AE
:102F000041230022DBB20EA90A3B8C4692460D9368
:102F100043461F3262441395159655460E9E0F9FE9
:102F2000A24690460C9C14930CE03032D2B2434639
:102F300001355A55BB4500D18AE1202D00D18AE1E7
:102F400006000F00220000233000390000F088FA4C
:102F5000D2B2092AE9D90D9B9C466244D2B2E6E777
:102F6000FF23099904C913401A00099117E5C046C7
:102F7000351D00100B9A1033110099430B91520527
:102F8000BAD500239A460B9B06930A9B05934346AA
:102F900004930C9B0393129B02935346019316AB2D
:102FA0002A00009321004B460898FEF713FF0136D4
:102FB00005001CE4FF22099B02CB11408B460993BC
:102FC000C5E65346454609930136FFF710FC5646C1
:102FD0005C46AA46139DD6E708230C930B910B99E8
:102FE000642800D084E60B9B5B0500D586E6B4E43C
:102FF0000722099B07339343013294469C4462465F
:1030000009921A685B6810009B4613005A461343E6
:1030100007D10B9A1033110099430B91520500D53B
:10302000A1E60B9A6123920600D541230022DBB270
:103030000EA90A3B8C4692460D9343461F326244CA
:103040005F461295A34655460400B24690460C9E34
:1030500013930DE03032D2B2434601355A55002366
:10306000BB4200D100E1202D00D100E104000F009F
:10307000320000232000390000F0F2F9D2B2092A10
:10308000E8D90D9B9C466244D2B2E5E70B9A6123D6
:10309000920600D54123DBB20EA90A3B1F228C46C3
:1030A0000D93230062445C461295170055469B46DB
:1030B000B2460C9E08E03033DBB201357B55B4429A
:1030C0000ED3202D0CD004003100200000F08AF92E
:1030D000CBB20929EFD90D9A94466344DBB2ECE7F1
:1030E00056465C46AA46129D3FE6099B1A0008CA4E
:1030F000D91713925A184A409246DA0F1292002BAF
:1031000008D1802310220B99DB000B4091430B91D7
:10311000002B2BD10B9A6123920600D541230EAAD6
:103120001F279446DBB20A3B0D9567445D46099321
:10313000A3465446B2460C9E08E03033DBB201355C
:103140007B55B4420ED3202D0CD00400310020005A
:1031500000F048F9CBB20929EFD9099A94466344A3
:10316000DBB2ECE756465C46AB460D9D0B9B2A0056
:1031700006930A9B21000593434604930C9B0898F1
:103180000393129B013602935B46019316AB0093A7
:103190004B46FEF71FFE139B05000993FFF727FB25
:1031A00002230C931AE7099B04CB92461293002A40
:1031B00008D1802310220B99DB000B4091430B9127
:1031C000002B2BD10B9A6123920600D541230EAA26
:1031D0001F279446DBB20A3B0D9567445D46099371
:1031E000A3465446B2460C9E08E03033DBB20135AC
:1031F0007B55B4420ED3202D0CD0040031002000AA
:1032000000F0F0F8CBB20929EFD9099A944663444B
:10321000DBB2ECE756465C46AB460D9D0B9B2A00A5
:1032200006930A9B21000593434604930C9B089840
:103230000393002302935B46019316AB00934B4626
:10324000FEF7C8FD129B050009930136FFF7CFFA80
:10325000B44200D871E6149B54460E960F97AA46C6
:103260009846159E139D8EE6A64200D8FBE6139B5A
:1032700056469846AA465C46129D76E508C9D81778
:103280001A1842400991FFF78AFB00230B9350E480
:10329000099B04CB9346099359E52F00BBE50B939B
:1032A00001E6063B0C939AE60EB4012210B585B0F8
:1032B00007AC08CC01000094524204480394FFF785
:1032C00071FA05B010BC08BC03B018472D1D0010E2
:1032D00000B585B0039101210290009303481300CB
:1032E0004A4202A9FFF75EFA05B000BDB11F001007
:1032F00010B5094A0300146884B0002C08D00122DC
:1033000000910648524203A9A047012004B010BD15
:1033100001F040F80020F9E7C01A0020A11F0010BA
:1033200001480421014B18471002002051330010BE
:10333000142310B50100188804331B88984710BD6A
:10334000162310B50100188802331B88984710BD5A
:10335000F8B54746CE4680B50F1E19D014239946BE
:10336000043304000025012698464B46188843463E
:1033700021681B88984701C4431E9841013540428B
:103380000640AF42F1D13000C0BCB946B046F8BDEE
:103390000126F8E7124A936F9B0815D29066D16612
:1033A000002905D0FFE7FFE7FFE7516F106F704777
:1033B00004B580210906C2175140002800D0C84337
:1033C00003F04AFF002104BDF0B5146E556E576F2F
:1033D000166FFFF7E3FF1466556657671667F0BD73
:1033E000000000D0114A936F9B0813D210665166FB
:1033F000002905D0FFE7FFE7FFE7516F106F704727
:1034000004B5002801D00020C04303F025FF0021AF
:1034100004BDC046F0B5146E556E576F166FFFF7BA
:10342000E5FF1466556657671667F0BD000000D0CB
:1034300094464A4A926F9208624601D228E0C046FA
:10344000F0B5464E346E756E776F366F00F020F82B
:103450009446424A14665566576716676246F0BD41
:1034600094463E4A926F9208624601D254E0C046AA
:10347000F0B53A4E346E756E776F366F00F04CF8DB
:103480009446364A14665566576716676246F0BD1D
:10349000002B24DB11D000293EDA00B5C94340429D
:1034A00000D1013100F038F8C943404200D1013168
:1034B000DB43524200D1013300BD002AEBD100288A
:1034C00001D1002905D00020C90FC90701D1C0438F
:1034D000410800B503F0B8FE0022002300BD00B58E
:1034E00000290ADBDB43524200D1013300F014F81B
:1034F000C943404200D1013100BDC943404200D11F
:103500000131DB43524200D1013300F005F8DB43C7
:10351000524200D1013300BD002923D1002B18D124
:10352000002A0CD0BC460D4F38667A660021002375
:10353000FFE7FFE7FFE77A6F386F674670470028BD
:1035400001D00748010000B503F07EFE00220023F1
:1035500000BD02000B00002000217047000000D0D9
:10356000FFFFFFFF002B00D0BFE0130C28D1002A83
:10357000E7D080B4114F39667A66FFE7FFE730B4D1
:10358000040C7B6F396F1B0423433B667A66FFE7AD
:10359000FFE7FFE7C04684B27B6F3D6F1B04234308
:1035A0003B667A66FFE7FFE7C04600232C042D0C3C
:1035B0007A6F386F00196941B0BC7047000000D0C5
:1035C000F0B594460025140E01D112020835140FEF
:1035D00001D112010435940F01D192000235D40FAC
:1035E00001D152000135D40B0134254F7C66254CA6
:1035F0003C660E0C93B2FFE7FFE7FFE73C6F6643C4
:10360000360C7703BE467343DF0B5B04C01AB94127
:10361000130C7343DB18C91ACE086643360CB64444
:1036200093B273431F0F1B01C01AB941130C7343AC
:103630001F0B1B05C01AB941860D8F023E4366431E
:10364000360C092D24DB520A7243801A7703460A8E
:103650006643360C16235B1BDE40DF40BF19644611
:103660006643821B7046043506330100D940A840EA
:10367000C01900D30131A24206D20023F0BD0000E0
:10368000000000D0FFFFFFFF121B0130F3D3F1E772
:1036900009277F1BFE406446A2B27243801A00D203
:1036A0000139220C7243130C1204821A99410B0047
:1036B0007046043513370100F940A840801900D343
:1036C0000131002B02D1A2420AD2F0BD013000D359
:1036D0000131121BFAD2013BF8D1A24200D2F0BD57
:1036E000013000D30131121BF7E7F0B51C0C00D0FC
:1036F00080E00CB400251C0A04D11B02160E3343D3
:10370000120208351C0B04D11B01160F33431201A2
:1037100004359C0B04D19B00960F33439200023575
:10372000DC0B02D192185B4101351C0097186441F3
:103730000134464F7C66464C3C660E0CFFE7FFE7C3
:10374000FFE7C0463C6F6643360C7703BE4697B230
:103750007743C01B00D20139C01B00D201399FB290
:103760007743C91BC91B170C77437E04FF0B801BD3
:10377000B941CE086643360C0C2D33DBB644120B30
:103780001F053A431B0B97B27743C01B00D2013988
:103790009FB27743C91B170C77433E043F0C801B35
:1037A000B941860D8F023E43664329277F1BFE40A9
:1037B0000C3D7746AF40BF1930BCA2B2ABB27243EA
:1037C0007343801A9941220C7243130C1204801A1D
:1037D000994102000B000137001BA941F9D2781E64
:1037E0000021F0BD0C277F1BFE4077467F0BAF40CA
:1037F000FF19E0E700245D1C07D0144F7D66396691
:10380000FFE7FFE7FFE7FFE73C6F95B29EB2654336
:103810006643401BB141150C1E0C654366433604DC
:103820002F0C3E432D04401BB141994204D20200AB
:103830000B0020000021F0BD01D19042F7D3801A87
:10384000994101349942F2D3F6E70000000000D01C
:10385000FFFFFFFF48404140484018B41B4B5B68E6
:10386000FC46019308BD04DFF33A001018B4174B6F
:103870001B68FC46019308BD00DFFD3A001094462A
:10388000134A926F920809D2624618B40F4BDB6854
:10389000FC46019308BD0CDFB53D00100C4AF0B5A5
:1038A000146E556E576F166F6246FFF7EEFF084AAB
:1038B0001466556657671667F0BD18B4034B9B68CE
:1038C000FC46019308BD08DF593C0010100A002097
:1038D000000000D0FFB550404240504059404B409E
:1038E000594000E0FFB5154F4C00640D03D0BC42B9
:1038F00004D10C0314D80020090D09055C00640DE7
:1039000003D0BC4204D11C030AD800221B0D1B05A6
:1039100001264B4009D44B4003D58B4200D1824253
:10392000FFBD9942FCD19042FFBD0B43DB1803431E
:103930001343F5D0C9434918FFBD0000FF0700003D
:1039400000B5FFF7CFFF804100BDC04600B5FFF7CF
:10395000C9FF01D9002000BD012000BD00B5FFF75F
:10396000B9FF01D9002000BD012000BD00B5FFF75F
:10397000B1FF804100BD012040054A00121804D863
:103980005A00121801D8002070470120704700200B
:10399000704700000021002805D17047C11748403A
:1039A000401AFAD0C90713B5064B1B6898470CBCE0
:1039B000441CA2401005120B0349091B09051943B9
:1039C000114310BD2C2100201F04000010B54C0035
:1039D000620D8023D218DB00D21A5B057E2A10DD2F
:1039E0009E3A13DACC170903490819435242D140D1
:1039F000640001341532202A05DAD04008436043C0
:103A000010BD002010BD0846604310BDC80FC0188F
:103A1000013810BD18B4044B5B6AFC46019308BD25
:103A200024DF653F00100000100A0020132370B54A
:103A30001D78012D15D010DD1C48FFF781FC1C4CB2
:103A400001008022200000F041FB022D06D0194821
:103A5000FFF76EFC184B186070BD154C174BA36434
:103A6000F5E7164B124C23606360A360E3602361AB
:103A70006361A361E36123626362A362E362236320
:103A80006363A363E36323646364A364E364236500
:103A90006365A365E36523666366A366E3662367E0
:103AA0006367A367E367A364D1E7C046534400009C
:103AB000100A00204C3300002C210020C13A0010D5
:103AC00007B5604601880A0A0230DF2AFAD1C9B276
:103AD000820804D3028840880004104300E0006894
:103AE000014A5050039007BD100A00200FB403BCD8
:103AF0000CBCF0B50124E407634000E0F0B50C0D08
:103B0000CF0F661E3605891B640503D3C9434042A7
:103B100000D30131640D03D0661CF60A07D0E41B04
:103B200000207F00791C89078912803C24031D0D29
:103B3000DF0F6E1E36059B1B6D0503D3DB43524220
:103B400000D301336D0D03D06E1CF60A07D0ED1BB8
:103B500000227F007B1C9B079B12803D2D032F1BA7
:103B6000661B58D4A446202E46DA20371400BC40E9
:103B70001D00BD40F24033412A4380185941CB0F0C
:103B800005D0C943C04300226442504151416246BE
:103B90004D0D28D10D0D07D100281FD0241940410B
:103BA0004941013A0D0DF9D0640006D3013000D32C
:103BB0000131002C01D140084000013A0BD4941C83
:103BC000E40A04D112051144DB071944F0BDD907FA
:103BD000204B194300E0D9070020F0BD0029DDD1BA
:103BE000002CDBD1F0BD0132C6074008CD072843C9
:103BF0004908002EE1D0D9E73C2E29DA203E403793
:103C00001400BC4000D00124F24014431A00BB4011
:103C10001C43D317ACE7AC46202F08DA203604004B
:103C2000B4400D00B540F84039412843A5E73C2F8A
:103C30000CDA203F40360400B44000D00124F840A4
:103C400004430800B1400C43C117EAE71000190013
:103C5000002494E70000F07FF0B50C0D661E3605D9
:103C6000891BE60A6405640D02D0651CED0A04D0C8
:103C7000002001210905803C2403A4461C0D671E79
:103C80003F05DB1BE70A6405640D02D0651CED0AE5
:103C900004D0002201231B05803C240377406444A8
:103CA00097B484B296B27443070C7E43150C6F43ED
:103CB00080B26843361802D3012000043F18300454
:103CC000350C00197D41844688B29AB250430C0CE1
:103CD00062431F0C7C438EB27E43921902D30126AD
:103CE0003604A4191604170C3618674101BC81B2BA
:103CF0009AB25143040C62431B0C5C4380B258439C
:103D0000121802D30120000424181004130C4018C8
:103D100063412D185E410020474106BC88B293B232
:103D200058430C0C6343120C544389B251435B1843
:103D300002D301210904641819041A0C09186241FC
:103D40006D1856410020474118BCF902720D11430D
:103D5000F0026A0D1043ED020A0D03D16D194041C6
:103D60004941013B124E9B1B7600B3420ED26D00BF
:103D700007D30130002671416646354301D1400822
:103D800040001B05C918E4072144F0BD0BDA0133DC
:103D900006D1013004D101314F0D01D04908F2E7BD
:103DA000E1070020F0BD013631050020EBE70000FF
:103DB000FF030000F0B51C0D671E3F05DB1BE70A83
:103DC0006405640D02D0661CF60A04D000220123AB
:103DD0001B05803C2403D0252D060026F6432E66C5
:103DE0001E096E66CE0FF619B44649004F0D02D07B
:103DF0007E1CF60A03D000200021403F3F033E1BFB
:103E0000B600B444013F7F05C91B49082E6F013637
:103E100076089C02950D25437543ED137543AD134C
:103E200001356D10F603761B0CB4CC02450D2C4306
:103E3000A2B2B3B25A43270C7B43350C6F43A4B2F2
:103E40006C431B1902D3012424043F191C041D0CCC
:103E5000A4187D4124196D41009A91B2ACB261431E
:103E6000170C7C432B0C5F4392B25A43A41802D325
:103E700001221204BF182204230C52187B41019C1A
:103E80006C431B19520ED9010A434401A01A81B296
:103E9000B2B2514303145A43360C734387B277438B
:103EA000D617D21900277E4136049B191704160C29
:103EB0007F185E417316ED18F301002680337541BB
:103EC000A90F06D16400690AE8055B0A184309D204
:103ED0002FE00422944480337541A90AA8059B0A67
:103EE000184326D3404149412404009A019B0D0008
:103EF0005543641B4343E41A95B286B27543170CCD
:103F00007E43030C5F4392B25A43B61802D3012298
:103F10001204BF183204330C52197B4152429C41A7
:103F2000002C02D40022013051414008CA0710433E
:103F3000490802B06246D7079210084BD218084BC6
:103F40009A4203D212058918C919F0BD0020002A2F
:103F500001DC3900F0BD01331905F5E7FD03000070
:103F6000FE070000002200B5203200F004F808002F
:103F700000BD000000220B150AD410B5944600F0D5
:103F800031F81414013400DA0021CB17144C204707
:103F90000020002170476244343A0CD40C2A07DA1E
:103FA00004009140904052422032D440214310BD41
:103FB000D843D94310BD203207D40C469440524216
:103FC00020321141D040204310BD0800C9172032D3
:103FD00003D452422032104110BD1800190010BD08
:103FE000973F00100A0DCC0F531E1B05C91A52052E
:103FF00003D3C943404200D30131520D03D0531CB7
:10400000DB0A07D0121B00206400611C890789129B
:10401000803A1203014BD21A70470000FF030000E0
:10402000132310B512481C78FFF78AF90100012C00
:104030000AD003DD80220F4800F048F80E48FFF751
:1040400077F90E4B186010BD0A4C5422200000F086
:104050003DF80B4B6365A365E36523666366A36662
:10406000E36623676367A367E3672362E361E5E7CA
:1040700053460000100B00204C3300002C21002080
:104080008540001007B5604601880A0A0230DF2A21
:10409000FAD1C9B2820804D30288408800041043D0
:1040A00000E00068014A5050039007BD100B00204B
:1040B00001480421014B1847200200205133001011
:1040C000014B1B681847000020020020014B5B6871
:1040D0001847000020020020030010B5080011005E
:1040E0001B68984710BDC046F0B546464F46D646B9
:1040F000C0B5437D80460E001700002B46D0002A35
:104100003FDD4B1E9946244B0125002400209A4692
:104110000DE04B461B5D0D3B5A425341325DDBB215
:104120000A2A0BD02B00013401359F421ADD002CE6
:10413000EFD14346325D1B7D0A2AF3D1002BF1D12A
:10414000A04204DA4346211A1B68301898474346B8
:1041500050461B6802219847013428002B00013586
:104160009F42E4DC874204DD4346391A1B6830185D
:104170009847F619013E33780D3B5A425341424667
:104180001375E0BCBA46B146A846F0BD03681100FD
:1041900030009847F5E7C04630760010F0B5C646C7
:1041A0000C000968060000B5802906D04B1C23606E
:1041B0006418267180BCB846F0BD0F4B1D68002DF9
:1041C00016D0231D98460D4F02E02D69002D0FD00B
:1041D0002B68002BF9D03B68002B01D0AB42F4D107
:1041E000280041462268FFF77FFF2D69002DEFD19F
:1041F00001230021DBE7C046340D0020F40D002030
:10420000F0B5DE4657464E464546E0B585B0170048
:104210001C0006000D00FCF773FF0023304A121843
:104220004B41002B58DB2F4908008A4603F01CF84D
:1042300001906B1C03D1300002F0CEFF0500002C72
:1042400025D1294B9846294B1C68002C15D0002FEE
:1042500020D1274F02E02469002C0ED02368002BC8
:10426000F9D03B68002B01D0A342F4D120002A00F2
:104270003100C0472469002CF0D1019B002B27D1CD
:1042800005B0F0BCBB46B246A946A046F0BD194BEE
:104290009846D8E7164B994602ABDF1D0A239B468A
:1042A00002E02469002CE8D02368002BF9D04B46AB
:1042B0001B68002B01D0A342F3D12A00310020005B
:1042C000C0475B460122390020003B70C047E8E749
:1042D000504602F0B1FFD3E70122074B5242A2E75A
:1042E00040420F00F4080020E9400010340D002087
:1042F000F40D0020D9400010FFFFFF7FF0B5CE463F
:10430000474680B583B06B460600DD1D2870FCF77C
:10431000F7FE00231A4A12184B41002B2BDB1949D8
:104320000800884602F0A0FF174B81461C68002C4D
:1043300014D0164F02E02469002C0FD02368002B04
:10434000F9D03B68002B01D0A342F4D12000012218
:104350002900FFF7C9FE2469002CEFD14B46002B42
:1043600005D1300003B0C0BCB946B046F0BD4046F0
:1043700002F062FFF5E70122054B5242CFE7C0464B
:1043800040420F00F4080020340D0020F40D0020FE
:10439000FFFFFF7F70B5040002F01EFF0023010045
:1043A000050001222000FFF72BFF084B1C68002CA2
:1043B00006D06368002B05D098472469002CF8D1FB
:1043C000280070BD2469002CF3D1F9E7340D0020DA
:1043D0000A4A1368002B05D10CE01A001B69103241
:1043E000002B07D09842F8D1002902D1036913604D
:1043F000016170470029FCD01060FAE7340D0020FD
:10440000F0B5CE46474680B5A5B004000D00FCF7D8
:1044100077FE00232A4A12184B41002B49DB294E14
:10442000300002F021FF00230700039322002B003D
:10443000254803A9FEF74CFF039B8046002B14D1AF
:10444000224B1C68002C06D06368002B0BD09847C9
:104450002469002CF8D1002F27D1404625B0C0BCDC
:10446000B946B046F0BD2469ECE7184B1D68994683
:10447000002D22D0164C02E02D69002D11D02B68A2
:10448000002BF9D02368002B01D09D42F4D1039B6F
:1044900028001A0004A90193FFF726FE2D69002DBC
:1044A000EDD14B4603951C68CCE7300002F0C4FE0A
:1044B000D3E70122074B5242B1E70395CBE7C04651
:1044C00040420F00F40800209D410010340D0020F0
:1044D000F40D0020FFFFFF7F0FB400B583B004A9E7
:1044E00001C90191FFF78CFF03B008BC04B0184765
:1044F00010B500F0C5F8012010BDC046F0B50D1E86
:1045000015DD0E4B0D271A680D4B4519D31859426E
:104510004B410C495B005E5E20210478A64207D027
:1045200093691942FCD101301460A842F5D1F0BD65
:1045300093691942FCD11760F2E7C0468C2700202E
:104540000080FCBF8827002030B504000D1E26DD4A
:10455000002010211B4B013C1A689369194219D1A4
:10456000013093691942FCD1136823548542F4D178
:10457000154B1B68002B0CD050239363516B183BD9
:1045800034320B401100802252010A43136000288C
:1045900015D030BD0C4B1B68002BEDD1F7E70A4B53
:1045A0001B68002B0BD050223821064B1B689A63E6
:1045B0005A6B343311408022520113431960032097
:1045C0004042E6E78C270020AC0C0020064B10B5DB
:1045D0001B68002B06D00021044A12689163044A2C
:1045E0001068984710BDC046AC0C00208C270020F6
:1045F000B00C00201D4BF0B51A68C64698461C4BFF
:104600000E00D31859424B411A4F14331C000500B9
:1046100000B53B68002807D0002B11D0164B3D6039
:104620001E6080BCB846F0BD002BF7D0906300211F
:104630002000FCF763F820001049FCF7A3F8EDE731
:1046400020000E49FCF774F801212000FCF756F811
:104650004346502238211B689A635A6B3433114009
:104660008022520113431960D8E7C0468C270020EE
:104670000080FCBFAC0C0020B00C0020CD45001029
:104680000C4B10B51B780C4B0C4C1B780C4B0221BF
:1046900000202360FBF728FF02210120FBF724FF05
:1046A000E12120684902FDF707F801210548FFF7DD
:1046B0008FFE10BD4CF0031050F003108C2700202B
:1046C00000400340300200200B4B10B59C46604474
:1046D00043425841094A840082B0009208482200AF
:1046E000E31CFBF7A3FF844202DC001B02B010BDF9
:1046F00001204042FAE7C0460000D0AF74760010B7
:10470000AB270020F0B5D6464F4646468846C0B592
:1047100005240600FBF752FF43461F791C57284B20
:104720008146F01843425841264B9A4683009C46E6
:1047300053466246985801222023BA40DB1B013AB7
:10474000002C32DB9C422DDCA2401500104229D106
:10475000002F1AD043465A78197812021143424664
:104760009B78D2781B040B4312061A439046002212
:1047700041465300C95A4B0B00D109191319123382
:104780009B00013299519742F2D853466246054345
:104790009D504846FBF71EFF2000E0BCBA46B146DC
:1047A000A846F0BD0848FDF7A3FA002B02DAF9E7A6
:1047B000013BF7D315009D401C000542F8D1C7E727
:1047C0000000D0AF2C0C002098760010F0B55746B2
:1047D0004E464546DE468946E0B583B00CA90D78C5
:1047E0004946490088464944C90046183700340004
:1047F000DC3701903868CC3483462068C024824678
:104800000198CC318446A401614421438024A40250
:104810000C60691E8D411F216D420D4016498C466A
:104820006544052B0ED9A02149058C461F21D83699
:104830006046540104430532053B3C600A40356044
:10484000052BF5D8414652019B0613434944019A72
:10485000C90050180200DC3213600300D8331D6019
:104860005B4613605346CC30036003B0F0BCBB46DC
:10487000B246A946A046F0BD80E00000F0B5012593
:104880008D400468AC434D0004606C18E4000419CA
:104890002600C836002B28D01F68DC3437605F68DC
:1048A00077609F68DB68B76023606D18EB001D00C0
:1048B0008024D035451964012C4380252D062560C0
:1048C000256001250F4C2E008C4084600C1DA640F5
:1048D000802408318D401F21A4010443C0180A40E0
:1048E000D830266025600260F0BD80277F023760E7
:1048F000F8277F027760C027DC343F03B76023606E
:10490000D3E7C0460101010100B5054B83B00100AA
:10491000009300220B230348FBF788FE03B000BD81
:10492000AC760010A827002010B5FFF7E1FD0121AB
:104930001820FBF709FE10BD70B5040015000E002D
:10494000FBF716FE0123D022A3401206012E0AD146
:104950005362022D0AD0012D0ED00022002120002A
:10496000FBF7DAFD70BD9362022DF4D10022012124
:104970002000FBF7D1FDF5E7012200212000FBF725
:10498000CBFDEFE70123D02283401206002901D09E
:10499000536170479361FCE7D0231B065B68C340FB
:1049A000012018407047C046002805D0034A916A8C
:1049B000936A5B1A9842FBD87047C0460040054096
:1049C000074A10B50300946A002905D00268002048
:1049D000A21A914200D910BD01201C60FBE7C0461D
:1049E00000400540F8B5002800D070E0394F3A4D3E
:1049F0003A4C3B4B22689A4205D003230120394AA6
:104A0000394900F053FC364E01222900012026606E
:104A100000F0ACFB2368B34205D003230120314AE8
:104A2000314900F043FC2E4E0123032229000120CE
:104A3000266000F03BFC2368B34205D0032301202D
:104A4000284A294900F032FC254E01222900012084
:104A5000266000F08BFB2368B34205D003230120BE
:104A6000204A214900F022FC1D4E0123002239007A
:104A70000120266000F01AFCFA208000FFF794FF66
:104A80002368B34205D003230120164A164900F0DB
:104A90000DFC134E0123012229000120266000F0A5
:104AA00005FC2368B34205D0032301200D4A0E49BB
:104AB00000F0FCFB0A4B290001220120236000F0DA
:104AC00055FBFA208000FFF76FFF0120F8BD074F6C
:104AD000074D8DE70038101808341018BC1A002054
:104AE00000001018001018000A00010000481018FB
:104AF00008441018F8B55746DE464E464546E0B520
:104B00001F00244BCD0B9B461B6881460C00924630
:104B1000ED039D4205D0032301201F492A0A00F01E
:104B2000C5FB5B4664041D60630C984600240026A8
:104B3000002F27DD3D1B402D00DD402553461A196F
:104B400043464846F11864192B0000F057FB7619CC
:104B5000A74217DD80231B029E42EBD34346E51894
:104B60005B461B68ED0BED039D4205D0032301203E
:104B700009492A0A00F09AFB5B461D60074B9C46D8
:104B80006644D7E72000F0BCBB46B246A946A04623
:104B9000F8BDC046BC1A00200A0001000080FFFFDB
:104BA000F8B54746CE4680B51E00099B88461700DB
:104BB00099460400089D06E0002C0CD0FA208000E5
:104BC000FFF7F2FE013C4A463900404600F0CEFABB
:104BD00030408542F0D1281A43425841C0B2C0BC8F
:104BE000B946B046F8BDC04670B51A4E04003378D9
:104BF000194D002B17D001233370C0232A685B05A1
:104C00009A4206D0C022032301201449520300F027
:104C10004DFBC0235B052B602200042310490120BB
:104C200000F044FB70BDC0232A685B059A4209D19D
:104C3000C0235B052B60012204230A49012000F0F8
:104C400035FBD8E7C022032304495203012000F0BA
:104C50002DFBEDE7AC270020BC1A00200A00010064
:104C6000648000186880001870B5002803D0084BD5
:104C70001B6803420BD0002A09D00C00054E8D188A
:104C8000217830000134FFF727FCA542F8D170BD30
:104C90002C0D0020F47600100EB400B582B0002870
:104CA00003D0064B1B68034204D004A9039801916A
:104CB000FFF7A6FB02B008BC03B018472C0D00207C
:104CC000F0B5CE46474680B50123082201207A4937
:104CD0008FB000F0EBFA0B24402506E0013C002CDD
:104CE0007ED0FA208000FFF75FFE0122012072498A
:104CF00000F03CFA0542F1D0012300226E49012068
:104D000000F0D4FA0120FFF76DFEC0236B4C5B0569
:104D100022689A4206D0C022032301206849520328
:104D200000F0C4FAC02504230322012065496D0563
:104D3000256000F0BBFA2368AB4206D0C0220323F3
:104D400001205F49520300F0B1FAC0235B052360E4
:104D5000002204235C49012000F0A8FA5B4B0021EB
:104D60001B685B4A0120FFF7C5FE0022030059497A
:104D70000120FFF791FF5848FFF716FE574B584A9E
:104D80001B68584901200593FFF7B4FE554A0300FC
:104D900055490120FFF780FF059B54499B08DA43E2
:104DA00012041A430120042300F080FA0020FFF7C8
:104DB00019FE3324802506E0013C002C10D0FA2097
:104DC0008000FFF7F1FD012201203B4900F0CEF900
:104DD0000542F1D02021642000F0B0FA061E06D171
:104DE000002630000FB0C0BCB946B046F0BD404B05
:104DF00006AC1F680023220023613E4B03CB03C295
:104E000002236381002F31DD802339009B009F4204
:104E100000DD19008F424ADD37480D0080468020B2
:104E2000800000238146354A2281FA22E160200079
:104E3000009143441421920000F032FE791B494551
:104E400001DD80218900802248192B005201874210
:104E50002BDC04231A4322812B00FA22E16020007C
:104E6000009143441421920000F01AFE244D0623C1
:104E70002A000A21234800F025FE69792A786B78F8
:104E80000391297907000291E97820000191A9781E
:104E900000911D49FEF708FA2200002F00D11B4A9D
:104EA00001201B49FFF7F8FE9BE70500BCE7124B0A
:104EB00000259846114ACCE70E000100BC1A0020DC
:104EC0000A00010010C0001844C0001800ED0310D3
:104ED00000810010047700108813000004F0031014
:104EE00004ED0310FCFC070030770010FCFF00000D
:104EF000FC800010CC760010207D00100210000015
:104F0000C81A002058770010D4760010FC760010E4
:104F100068770010014B18607047C0462C0D0020C8
:104F2000F0B52C4D0F0029682B4E4B005B18DB00B1
:104F30001A00D0329446C6468046306880228444A7
:104F40006446520122438024240600B51460146094
:104F50000022C318D8331A60012382B0009318329C
:104F6000FFF734FC07211D4B1A68FB171940A023DB
:104F7000CF1941469201DB05D318FF101960DF619C
:104F8000174B80219C464904624413680B42FCD1B4
:104F9000296801220B0018339A40306843681A428E
:104FA000FCD04B005B18DB00C318D4331C68002C0A
:104FB000FCD1012318220094FFF708FC296833680C
:104FC0004A005218D2009B18D8331C6002B080BC33
:104FD000B846F0BD98270020480200209C270020FA
:104FE00010000050F0B54746D64680B5584C150025
:104FF000FA22A5441C000F0006000021D20004A8DC
:10500000FFF75EF86205530D02A90B81049A51491E
:10501000FF033F091140394303273A003020049130
:105020003240090E1201814311434022114302AA6A
:10503000D1720022039204329046324245D0FF23BF
:10504000049A1B041102100A090E090603400B43BF
:10505000FF21120601400B43120C1343049300215D
:105060001920FFF78FFC202104A8FFF759FF3A4BC6
:105070003A4E9C463A49002303936346326804261D
:10508000186853009B18DB00C318D8331E60A02398
:105090000968DB058901CB1804325D609200DC6190
:1050A000631E13502F4B9C46802361445B040A68A7
:1050B0001A42FCD101211920FFF764FC20002A4B81
:1050C0009D44C0BCBA46B046F0BD012E04D0022EAD
:1050D000C5D10334BC43C2E702AA128904335B057D
:1050E000D20AD2025B0D1343002102AA19201381B8
:1050F000FFF748FC202104A8FFF712FF164B174EBC
:105100009C46336861469A4609685A0052448A466A
:105110004146A020D2005244D83211601049C00547
:105120000A6801939201101803AB43604346C361C0
:105130006046019B006804339B001F50094B802090
:1051400098464004424413680342FCD193E7C046AA
:105150001CF8FFFFFF0700F04802002098270020FE
:105160009027002010000050E4070000F0B5050073
:1051700085B01300160003AA0C00FFF733FF6B077E
:1051800022D5012E20DDFF27039B3F041A02190AB6
:10519000120E12060F401743FF221B060A40174348
:1051A0001B0C1F4303231A002A402B4212D10E4B23
:1051B0006404640C320004200C4901970094FFF74A
:1051C0006BFD380005B0F0BD03231A00039F2A4091
:1051D0002B42ECD0012A03D0022A03D0044BE7E78C
:1051E000044BE5E7044BE3E7807700108877001075
:1051F00084770010787700107C770010F0B51700E6
:10520000FA22284C0600A544D2000C006846002172
:105210001D00FEF755FF6B461D706B05E2005B0F2E
:1052200013436A46402153706311E4034942240F3B
:105230000C434331314009010C439370D470730720
:105240000FD5FF23009A1B041102100A090E09064C
:1052500003400B43FF21120601400B43120C134382
:10526000009300211920FFF78DFB042D10DC39007D
:105270002A0001A8FEF72AFF40216846FFF750FEEA
:1052800001211920FFF77EFB2800074B9D44F0BD4C
:1052900068462021FFF744FE3800E900FFF740FE92
:1052A000EEE7C0462CF8FFFFD4070000F0B585B04C
:1052B00005000C001E000392430710D5012E0EDDE1
:1052C000FF231102100A1B04090E090603400B43B9
:1052D000FF21120601400B43120C134303933300CA
:1052E00003AA21002800FFF789FF03231A00070003
:1052F0002A402B4205D0012A11D0022A11D00A4B94
:1053000000E00A4B039A6404640C0192042032000A
:1053100007490094FFF7C0FC380005B0F0BD054B0D
:10532000F0E7054BEEE7C046847700108077001069
:10533000B0770010787700107C770010F0B5C64683
:1053400000B5144B0E0005009846134F84B006E0DC
:10535000002D17D0FA208000FFF726FB013D012326
:10536000082103AA0020FFF73DFE0823039C0093B9
:1053700001944346012239000420FFF78DFC34409C
:10538000B442E5D1A41B63425C41E0B204B080BCEE
:10539000B846F0BD8077001088770010F8B5254C2E
:1053A000254D264A21682B68914200D00833244EAF
:1053B00001203360FFF7A8FA224B234A1860C3028A
:1053C000134032682F68D203134311221343A022E3
:1053D000D20594460022800160442668391D02608F
:1053E0008A00B2184260082282600361134B9E4219
:1053F00000D00831154E01203160FFF785FA144BBB
:10540000114918603368C2020A40DB0313432122AA
:105410001343A022D20594462A68216808328001ED
:10542000920060448A180260002242600832826062
:105430000361F8BD4802002098270020000020509A
:10544000A02700209C270020FD7F00FF942700203C
:1054500090270020F0B5C64600B5394C88B0012130
:105460002068FFF731F9374E2268374B3060103231
:10547000364920681A60FFF745F980235B02984699
:105480000493C31CC2011B031343314A2168134018
:105490000593C0231B03069380239B0507932D4B85
:1054A00007009C4661444B1E99411D200631FBF7C5
:1054B0001BF8284B21689C4661444B1E99410125ED
:1054C00018200631FBF710F8009531682068012399
:1054D0001D22FFF77BF9009531682068012318220F
:1054E000FFF774F9079B1C4A31681A401B4B206870
:1054F000134307931A4A069B03931A4084235B05C0
:105500001343069343463A00049304ABFFF7B6F9FE
:1055100080223068216843001B18DB00D033CB1891
:10552000520113438022854012061A601A600B68EC
:105530001D430D60FFF732FF08B080BCB846F0BDD8
:105540004802002098270020A42700202C78001073
:10555000FFFFFF9F0000E0AFE00300FC18741C0099
:10556000FFFF00C0F0B5CE46474680B585B0FFF7D7
:1055700071FFFF231B049946FF2304259846614EC3
:10558000614FFA204C46C000FFF70EFA04231421A5
:1055900003AA0420FFF726FD039B04201A02190A20
:1055A000120E0C401206144342461B0611400C43D7
:1055B0001B0C1C4314230422009339003300019474
:1055C000013DFFF769FB514B002D00D18BE09C4260
:1055D000D7D14F48FEF7DEFE4E4B0021039303AABE
:1055E00004230420FFF70AFE039B4B4D0193002385
:1055F00004222900042000933300FFF74DFB04230D
:10560000142103AA0020FFF7EDFC039B434C9846AE
:1056100001931423042200933900330004204444EE
:10562000FFF73AFB63425C41384B984564D1042351
:10563000002103AA0020FFF7D5FC039B390001934A
:10564000002398460422042000933300FFF724FB34
:105650000423002103AA0020FFF7C4FC039B3900A8
:105660000193434604270422042000933300FFF7EC
:1056700013FB01231D2103AA00200397FFF7BEFDA2
:10568000039B012201931D23290004200093330072
:10569000FFF702FB99230421039303AA973B002001
:1056A000FFF7ACFD039B0222290004200193009721
:1056B0003300FFF7F1FABE230621039303AABC3B94
:1056C0000020FFF79BFD039B022201930623290084
:1056D000009304203300FFF7DFFA200005B0C0BCC0
:1056E000B946B046F0BD9C4200D172E721000C489B
:1056F000FEF7F2FE0024F0E741460A48FEF7ECFE12
:1057000095E7C0468077001088770010ADBEEDFEAB
:10571000F877001000B30002B07700105341120177
:10572000D87700100C78001010B500220121172046
:10573000FFF702F900211720FFF724F900220121C9
:105740001920FFF7F9F801211920FFF71BF90022B2
:1057500001211D20FFF7F0F800211D20FFF712F9AD
:10576000002201211820FFF7E7F800211820FFF799
:1057700009F90B48FFF718F901211720FFF702F983
:105780000848FFF711F9022200211820FFF7D4F88A
:10579000002200211820FFF7CFF8FFF7E3FE10BD2D
:1057A000A086010050C3000010B51820FFF7F4F8E0
:1057B000431E9841C0B210BDF0B54546DE4657467F
:1057C0004E46E0B585B01C00109B1700D21803238D
:1057D00003328846D1170B409B189B109B009C46B8
:1057E0001C22039383236244050093465B00984286
:1057F00000D1DDE00823FF33984200D17EE0904BDA
:10580000109A009310202B008E49FFF745FA42466C
:10581000002A00D1CEE010208B49FFF73DFA8B4ED5
:1058200000218B4A3000FEF74BFC5B469BB2994649
:105830003380DB437380874BF5601A7892460132E0
:105840001A70534633710C23834AF371039B3382DE
:105850001388591C11800E9A1B04002A69D0022259
:1058600013437361002F00D0E3E0109B002B00DD99
:10587000A2E0002753464A460820784900933B009F
:10588000FFF70AFA5B46320000210220FFF7B6FC60
:10589000002C31DB724B9846724B9A461BE0434614
:1058A0005B79002B2CD14346D9795F181031002D3C
:1058B00030D078783B78BA7800021843FB7812042D
:1058C00010431B0603439D423ED00A3C6648FFF747
:1058D0006BF8002C10DB00220021404600F0C8F9D4
:1058E000061EDCDC002DF0D1002E0BD10A3C5E48F8
:1058F000FFF75AF8002CEEDA002603E05B4B7FE757
:10590000002DE2D1300005B0F0BCBB46B246A9463E
:10591000A046F0BD0F9B002BF4D0109B421A9A4278
:1059200000DD1A00002AEDDD0F984144FEF7CEFBA2
:10593000E8E77361002F9DD030003A0041461C30EB
:10594000FEF7C4FB002795E7109B761A9E4200DD08
:105950001E000F9B002B01D0002E3ADC797B3B7B95
:10596000BA7B09021943FB7B120411431B060B434C
:105970000193797A3B7ABA7A09021943FB7A1204C5
:1059800011431B060B4332005146009310202B009D
:10599000FFF782F9797B3B7BBA7B09021943FB7BDA
:1059A000120411431B060B439ED001267642A9E741
:1059B0002F4B25E7224A2EE738001C301A000F999A
:1059C0003018FEF783FB33887779994633799A4606
:1059D00050E7180032004144FEF778FB797B3B7BAF
:1059E000BA7B09021943FB7B120411431B060B43CC
:1059F0000193797A3B7ABA7A09021943FB7A120445
:105A000011431B060B4332001649009310202B0054
:105A1000FFF742F9797B3B7BBA7B09021943FB7B99
:105A2000120411431B060B4300D16BE7012676429B
:105A300068E730003A0041461C30FEF747FB14E7A8
:105A40008C7A001070780010AC7C00105C14002080
:105A50005C0600004E0200204C0200208C780010F2
:105A6000000E0020AC780010102700006C780010A9
:105A70006878001030B587B00D000400059201F081
:105A8000ABFB0423029305AB421C019308200123C6
:105A900021000093FF302B00FFF78EFE07B030BDD2
:105AA00030B585B00400019308200123089D0093C0
:105AB00002951300FF300A002100FFF77DFE05B0BC
:105AC00030BDC046F0B585B00D0016001F000400C3
:105AD00001F082FB0023421C8320009321002B0055
